:020000000C945E
:10000200A9000C9400000C9400000C9400000C94C5
:1000120000000C9400000C9400000C94CD030C948E
:1000220069040C9400000C94090B0C9400000C94CD
:1000320000000C9400000C9442070C9400000C94F5
:1000420000000C9400000C94EF070C9400000C9438
:1000520000000C9400000C9400000C9400000C941E
:1000620000000C9400000C9400000C9400000C940E
:1000720000000C9400000C94EF090C9400000C9406
:1000820000000C9400000C9400001027E8036400A8
:100092000A0001000010000110000100601A290886
:1000A2002003DB01CA004D010F00F8CA850F0100D1
:1000B200003AF9433414590800044B27F405671A2F
:1000C200FF00FF053704310615073205504B003B90
:1000D2003A1F161E1337184E453200230100010045
:1000E200010001000100010001000100200350464F
:1000F2000000000000000000000041542B4E414D62
:1001020045494B53454D2330300D0A000A00040087
:100112009E0002001205A80001001405AA000800B2
:100122002805AC000A003005B40001003A05C200FF
:100132001A004005C40007009805DE000700A0056C
:10014200E6000200D705EE0012000005FC000000E8
:10015200F894EE27ECBBF1E0F5BFE5BFE0936C004D
:10016200F8E1F1BDE1BD8DE0A2E0BB27ED938A95F8
:10017200E9F780E090E1A0E0B1E0ED930197E9F7C3
:10018200EEE0F1E085919591009761F0A591B5912E
:1001920005901590BF01F00105900D920197E1F7CE
:1001A200FB01F0CF8BBFEFEFEDBFE0E1EEBFC0E0B0
:1001B200D5E00C949E012497E0E0E883E983EA838A
:1001C200EB831A93A091AB05A23020F51EE011300B
:1001D20000F1E12FAEEAB5E0F0E0EE0FFF1FEA0F0B
:1001E200FB1FA091AC05B091AD05A083B183E09156
:1001F200AC05F091AD05A981BA818B819C810E94E9
:10020200900D0E946E0DE983FA836B837C831150FB
:10021200DECF32C01EE0113078F1E12FAEEAB5E058
:10022200F0E0EE0FFF1FEA0FFB1F0F01E12FF0E0DE
:100232003197AEEAB5E0EE0FFF1FAE0FBF1F0E946F
:10024200410ED001ED93FC93E12FAEEAB5E0F0E070
:10025200EE0FFF1FAE0FBF1F0E94410EA981BA8190
:100262008B819C810E94900D0E946E0DE983FA831E
:100272006B837C831150CFCFE091AC05F091AD053B
:10028200E093AE05F093AF05E091AC05F091AD05BA
:10029200A981BA818B819C810E94900D0E946E0D72
:1002A200E983FA836B837C83A981BA818B819C81E8
:1002B200EFE0F0E060E070E00E94E50DE983FA8390
:1002C2006B837C83E981FA81188125960895BA931C
:1002D200AA93EA81FB81AC81BD81AE17BF07A8F06A
:1002E200E881F981EA17FB0718F0EC81FD8123C050
:1002F200E881F981AA81BB81AE17BF0718F0EA81B4
:10030200FB8119C0E881F98116C0E881F981AA81CF
:10031200BB81EA17FB0718F0EA81FB810CC0E88178
:10032200F981AC81BD81AE17BF0718F0EC81FD8168
:1003320002C0E881F981269608952C978CE0A0E00E
:10034200B0E0E0EFF0E00E948A0E10E000E030E062
:1003520040E050E00E9410070E9428070E94250CEE
:100362000E94B2065FD30E94130D0E946E07A89AE4
:10037200A4E6B0E00E94640D0E948107A4E6B0E00A
:100382000E94640D0E948107A4E6B0E00E94640D01
:10039200A0E0B5E00E94CF077894E0918005F0914B
:1003A2008105FA93EA93E0918205F0918305FA932D
:1003B200EA93A0918405B091850589DFE887F987E2
:1003C200A885B985E4E6F0E00E94CD0DE0934105F1
:1003D200A885B985E4E6F0E00E940F0EE09342059D
:1003E200E0917A05F0917B05FA93EA93E0917C051E
:1003F200F0917D05FA93EA93A0917E05B0917F0575
:1004020066DFE887F987A885B985E4E6F0E00E940F
:10041200CD0DE0934305A885B985E4E6F0E00E949E
:100422000F0EE0934405A091AA05A13019F4E0E56E
:10043200F6E409C0E881F981309711F4A89805C063
:10044200E881F9813197E883F983B39BFECFE0918C
:100452008800F0E0EE83FF83E0918900F0E0E88716
:10046200F987F885E0E0AE81BF81EA0FFB1FE887DC
:10047200F987A885B985AE33E3E0BE0720F0A33340
:10048200E5E0BE0760F0A091D605A63010F0A8986E
:1004920005C0E091D605EF5FE093D60504C0E0E029
:1004A200E093D605A89AE0E0E0938900E093880003
:1004B200A1E0B0E00E94640D0E94AF07E093AC059A
:1004C200F093AD05A1E0B0E00E94640D74DEEC8310
:1004D200FD83AD81AA231AF4E0E0EC83ED83AC81C5
:1004E200BD81A131E7E2BE0724F0E0E1F7E2EC834F
:1004F200FD83E091AA05E03011F4E0E007C0A0918D
:10050200AB05AE3128F4E091AB05EF5FE093AB05AC
:10051200AC81BD81E4E6F0E00E94E00DE093470586
:10052200AC81BD81E4E6F0E00E94120EE093480542
:10053200A0911405B09115051F9721F4AC81BD81DE
:100542005DD303C0AC81BD81DDD2EA87FB87AA857A
:10055200BB85E4E6F0E00E94CD0DE0934505AA8557
:10056200BB85E4E6F0E00E940F0EE0934605A0E0B2
:100572000E94AB0AE0938605F0938705A1E00E94F2
:10058200AB0AE0938805F0938905A0918A05B091A2
:100592008B05E9E00E94BD0DDF01EAE0F0E00E9478
:1005A200CD0DA0918605B0918705EA0FFB1FE09360
:1005B2008A05F0938B05A0918A05B0918B05EAE03C
:1005C200F0E00E94CD0DE0938605F0938705A0919F
:1005D2009005AA30B8F5E0918805F0918905A091BF
:1005E2008C05B0918D0580918E0590918F056627BF
:1005F20077270E946E0DE0938C05F0938D05609332
:100602008E0570938F05A0919005A930B1F4A09149
:100612008C05B0918D0580918E0590918F05EAE051
:10062200F0E060E070E00E940A0EE0938C05F09327
:100632008D0560938E0570938F05E0919005EF5FB5
:10064200E093900540918605509187054336E2E09C
:100652005E0710F4E0E009C04439E2E05E0710F002
:10066200E4E603C0E42FE256EE0FE0935705E09173
:100672008805F0918905EA83FB83A0918C05B091EE
:100682008D0580918E0590918F050E94900D0E949C
:10069200780DE4E6F0E060E070E00E94C80DDF0152
:1006A200CB01E4E5F0E060E070E00E940A0EEA832C
:1006B200FB83AB81AA231AF4E0E0EA83EB83AA81ED
:1006C200BB81E4E6F0E00E94E00DE0934905AA81D7
:1006D200BB81E4E6F0E00E94120EE0934A0585D366
:1006E200A0913A05B0913B05AF3FE0E0BE0741F46F
:1006F200E0E4F5E0FA93EA93AAE10E94DE072AC059
:10070200A0913A05B0913B05A83FE0E0BE0769F42D
:10071200E6E1F5E0FA93EA93A8E00E94DE07EFEF44
:10072200F0E0E0933A05F0933B05A0913A05B091D1
:100732003B05A93FE0E0BE0769F4EEE1F5E0FA937C
:10074200EA93AAE00E94DE07EFEFF0E0E0933A05B9
:10075200F0933B05F894ACE13A02F001ACEFAE1B2A
:10076200AA93ACE13A020A923A02F001ACEFAE1B54
:10077200CDD27894393009F401E0303009F400E048
:10078200003011F43F5F01C03150193010F010E019
:1007920001C01F5F02CEFFCF0A921A926A937A9328
:1007A2008A939A93AA93BA93EA93FA93EFB7EA9346
:1007B2001A930A93E0916A05F0916B0560916C05BA
:1007C20070916D05E0936605F09367056093680587
:1007D200709369050CB51DB5E12FF0E00E94900DF4
:1007E200A0E0B1E080E090E00E949D0DDF01CB012E
:1007F200E02FF0E00E94900D0E946E0DE0936A05DA
:10080200F0936B0560936C0570936D05A0915D0587
:10081200A13008F442C0A230D1F4E0E0E0937205C6
:10082200E0937305E0937405E0937505E093660524
:10083200E0936705E0936805E0936905EAE6F5E071
:10084200A0E0B0E080E090E00E94540E22C0A091AF
:100852006605B09167058091680590916905E0E0B1
:10086200F0E061E070E00E94730DDF01CB01E091E6
:100872006A05F0916B0560916C0570916D050E949F
:100882006E0DE0937205F093730560937405709397
:100892007505E0E0E0935D051AC0E0916A05F0910C
:1008A2006B0560916C0570916D05A0916605B09124
:1008B200670580916805909169050E94730DE09328
:1008C2007205F093730560937405709375059BC070
:1008D2000A921A926A937A938A939A93AA93BA93F0
:1008E200EA93FA93EFB7EA931A930A93E0916205B7
:1008F200F09163056091640570916505E0935E0572
:10090200F0935F0560936005709361050CB51DB5AA
:10091200E12FF0E00E94900DA0E0B1E080E090E0D5
:100922000E949D0DDF01CB01E02FF0E00E94900DAF
:100932000E946E0DE0936205F09363056093640577
:1009420070936505A0915C05A13008F442C0A23005
:10095200D1F4E0E0E0936E05E0936F05E09370055B
:10096200E0937105E0935E05E0935F05E093600517
:10097200E0936105E2E6F5E0A0E0B0E080E090E01F
:100982000E94540E22C0A0915E05B0915F05809135
:10099200600590916105E0E0F0E061E070E00E94A6
:1009A200730DDF01CB01E0916205F0916305609167
:1009B2006405709165050E946E0DE0936E05F093DB
:1009C2006F056093700570937105E0E0E0935C053C
:1009D2001AC0E0916205F09163056091640570911F
:1009E2006505A0915E05B0915F05809160059091CB
:1009F20061050E94730DE0936E05F0936F0560939D
:100A020070057093710509911991E991EFBFF99100
:100A1200E991B991A99199918991799169911990E5
:100A220009901895BC9ABE9AE0E0E5BBE3E0E4BB0E
:100A3200AA98A29AE0E0E0BFE2E7E3BFE0E0E2BF0B
:100A4200EFEFE1BFE0E0EFBDE3E0EEBDE0E0EDBDE2
:100A5200ECBDE7BDE6BDEBBDEABDE9BDE8BDE09397
:100A62007900E0937800E5E0E5BDE0E0E4BDE3BDB8
:100A7200E0938B00E5E0E0938A00E0E0E0938900F8
:100A8200E0938800E0938100E0938000E093870088
:100A9200E0938600E0938500E0938400E093830076
:100AA200E0938200E4E4E7BFE0E0E0937D00E093BE
:100AB2006A00E0EFEABFE0ECE9BFE8BFE0E0EBB9D3
:100AC200E8E9EAB9E6E0E0939500E0E0E09390001F
:100AD200E7E4E9B9E0E0E0939B00E8E9E0939A00FB
:100AE200E6E0E0939D00E0E0E0939800E7E4E09325
:100AF2009900E0E8E8B9E0E0E0BDE0ECE7B9E7E85A
:100B0200E6B90895BA93AA932C97AC85BD85A6152C
:100B1200B70518F4E0E0F0E0E9C0F30166277727B3
:100B2200AC85BD85882799270E94780DE8EEF3E011
:100B320060E070E00E949D0DDF01CB01F5016627A8
:100B420077270E94E50DE887F9876A877B87F2019C
:100B5200662777277F936F93FF93EF93F4016627BE
:100B62007727A885B9858A859B850E949D0DDF011F
:100B7200CB01E8EEF3E060E070E00E94E50DAF919A
:100B8200BF918F919F910E94780DAC83BD838E831C
:100B92009F83AC81BD818E819F810E94760EB8F4C5
:100BA200E885F9856A857B85A8EEB3E080E090E070
:100BB2000E949D0DDF01CB01EC81FD816E817F8161
:100BC2000E94E50DEC51F0406040704004C0E8E046
:100BD200F7E060E070E00E944F0E0E944A0EA930DA
:100BE200E7E0BE07E0E08E07E0E09E0730F0E8E0D5
:100BF200F7E060E070E00E944F0E76C0BA93AA93CD
:100C02002C97AC85BD8588279927F301662777271E
:100C12000E94780DA887B9878A879B87AB85AA230C
:100C22002AF4E0E0E887E987EA87EB87E885F98537
:100C32006A857B85A8EEB3E080E090E00E94C80D53
:100C4200DF01CB01F501662777270E940A0EE887AC
:100C5200F9876A877B87F20166277727EC83FD8312
:100C62006E837F83E885F9856A857B85A8EEB3E08C
:100C720080E090E00E94C80DDF01CB01EC81FD8194
:100C82006E817F810E940A0E0E944F0E0E944A0EC0
:100C9200A93BEBE0BE07E0E08E07E0E09E0734F000
:100CA200E8EBFBE060E070E00E944F0E0E944A0E0B
:100CB200A536E0E0BE07E0E08E07E0E09E07A4F084
:100CC2000E94450EA0E4B2E48FE090E00E94E50DA0
:100CD200EF5CF04060407040A0E4B2E48FE090E04E
:100CE2000E94E50D0E944F0EE881F9812E9608952B
:100CF200C69A0000C6980000000000000895C69A37
:100D02000000000000000000C6980895AA931A93FC
:100D120010E8113050F0E12FAB81EA23E13010F0FE
:100D2200EEDF01C0E5DF1695F4CF10E8113050F088
:100D3200E12FAA81EA23E13010F0E1DF01C0D8DF20
:100D42001695F4CF10E8113050F0E12FA981EA2373
:100D5200E13010F0D4DF01C0CBDF1695F4CF18815B
:100D62005FC6E0911905F0E0E0931405F0931505D4
:100D7200C0901705DD24E0911805F0E0E853FF4F1D
:100D8200E0931205F0931305A0913105E4E6EA9F82
:100D9200F001DF01E0913205F0E0EA0FFB1F2F01C5
:100DA200A0912105E4E6EA9FF001DF01E09122052E
:100DB200F0E0EA0FFB1F3F01A0912305E4E6EA9F62
:100DC200F001DF01E0912405F0E0EA0FFB1F4F0183
:100DD200A0912505E4E6EA9FF001DF01E0912605F6
:100DE200F0E0EA0FFB1F5F0108950E947E0E10E003
:100DF20020E030E011E0193150F4E12FF0E0E05C46
:100E0200FA4FE081F0E02E0F3F1F1F5FF4CFD901B0
:100E1200E8E1F0E00E94CD0DE0935905FFC50E9484
:100E22007E0E10E020E030E011E0193050F4E12FA6
:100E3200F0E0E25EFA4FE081F0E02E0F3F1F1F5F0D
:100E4200F4CFF9010E94890DE0932705E7C50E94BE
:100E52007E0E10E020E030E011E0173050F4E12F78
:100E6200F0E0EA5EFA4FE081F0E02E0F3F1F1F5FD5
:100E7200F4CFD901E6E0F0E00E94CD0DE0931D052C
:100E8200CDC5AA93EA93EFB7EA93A0915C05A2308D
:100E920028F4E0915C05EF5FE0935C05A0915D05AD
:100EA200A23028F4E0915D05EF5FE0935D05E991E2
:100EB200EFBFE991A9911895BA93AA931A930A934D
:100EC20000E010E0EA81FB810E171F0718F40F5FA4
:100ED2001F4FF8CF19810881A3C5E7B3E760E7BBCD
:100EE200BB98ECE5EDB90895AFEF04D0779BFECF48
:100EF200EFB10895AA93E881EFB9779BFECF37C38C
:100F0200A4E6B0E00E94640DAFEFF4DFAFEFF2DFD2
:100F1200AFEFF0DFAFEFEEDFA4E6B0E00E94640DCA
:100F2200A0E1E8DFA0E1B7E2C7DFA7E1E3DFA0E1EC
:100F3200E1DFA0E1B7E2C0DFA8E0DCDFA0E1B7E2D9
:100F4200BBDFA0E0D7DFACE0D5DFA0E1B7E2B4DFE2
:100F5200ACE5D0DFA0E1B7E2AFDF08950E947E0EDC
:100F6200A4E6B0E0A9DFC0DF1E2FBEDF0E2FBCDF7C
:100F7200A12FB0E0E0E0F1E00E94950DDF01E02F4B
:100F8200F0E0EA0FFB1F9F0149C5AA93E0919B0085
:100F9200E072E1F3E881E0939C00E9C2BA93AA937C
:100FA200A881B981EC91E03031F0ED91A883B98349
:100FB200AE2FEBDFF5CF22960895AA931A9310E095
:100FC200E9811E1748F4AA81BB81EE27A10FBE1F3B
:100FD200AC91DBDF1F5FF4CF188122C50A921A920F
:100FE2009A93AA93BA93EA93FA93EFB7EA931A936E
:100FF2001CB1103539F4E1E0E0939705E0E0E093AD
:101002009105E1C1A0919705A13031F410939405A7
:10101200E2E0E0939705D7C1A0919705A23031F4A1
:1010220010939505E3E0E0939705CDC1A091970554
:10103200A330D1F410939605A0919405A73441F4FE
:10104200A0919505A73421F4A0919605A13409F049
:1010520007C0E4E0E0939705E0E0E093930503C066
:10106200E0E0E0939705AFC1A0919705A43011F499
:101072001C3209F009C0E0919105EF5FE093910500
:10108200E0E0E09392059FC1A0919705A43009F09A
:101092009AC1A0919105A23009F088C0E091920511
:1010A200F0E0309761F4E12FF0E0F097AAE0B0E0D1
:1010B2000E94C30DE0939805F093990571C0E13049
:1010C200A0E0FA0771F4E12FF0E0F097A091980503
:1010D200B0919905EA0FFB1FE0939805F0939905EB
:1010E2005FC0E230A0E0FA0761F4E12FF0E0F09790
:1010F200AAE0B0E00E94C30DE0939A05F0939B052D
:101102004FC0E330A0E0FA0771F4A0919A05B091C4
:101112009B05E12FF0E0F097EA0FFB1FE0939A05A1
:10112200F0939B053DC0E530A0E0FA0741F4E12FC2
:10113200F0E0F097A8EEB3E00E94C30D2DC0E630B8
:10114200A0E0FA0761F4E12FF0E0F097A4E6B0E046
:101152000E94C30DA0919C05B0919D051BC0E73074
:10116200A0E0FA0761F4E12FF0E0F097AAE0B0E026
:101172000E94C30DA0919C05B0919D050BC0E83063
:10118200A0E0FA0769F4A0919C05B0919D05E12FBA
:10119200F0E0F097EA0FFB1FE0939C05F0939D05AA
:1011A200E0919205EF5FE09392050DC1A091910548
:1011B200A33039F4AEE9B5E0E12FF0E0ED93FC9312
:1011C20002C1A0919105A43009F09EC0E091920560
:1011D200F0E0309761F4E12FF0E0F097A4E6B0E0A0
:1011E2000E94C30DE093A005F093A10587C0E130F2
:1011F200A0E0FA0791F4E12FF0E0F097AAE0B0E066
:101202000E94C30DA091A005B091A105EA0FFB1F9A
:10121200E093A005F093A10571C0E230A0E0FA07C7
:1012220071F4E12FF0E0F097A091A005B091A10533
:10123200EA0FFB1FE093A005F093A1055FC0E33026
:10124200A0E0FA0761F4E12FF0E0F097AAE0B0E045
:101252000E94C30DE093A205F093A3054FC0E430B2
:10126200A0E0FA0771F4A091A205B091A305E12FC5
:10127200F0E0F097EA0FFB1FE093A205F093A305BD
:101282003DC0E630A0E0FA0741F4E12FF0E0F0972C
:10129200A8EEB3E00E94C30D2DC0E730A0E0FA072C
:1012A20061F4E12FF0E0F097A4E6B0E00E94C30DF4
:1012B200A091A405B091A5051BC0E830A0E0FA07F3
:1012C20061F4E12FF0E0F097AAE0B0E00E94C30DD4
:1012D200A091A405B091A5050BC0E930A0E0FA07E2
:1012E20069F4A091A405B091A505E12FF0E0F09773
:1012F200EA0FFB1FE093A405F093A505E091920588
:10130200EF5FE09392055FC0A0919105A53039F49B
:10131200A6EAB5E0E12FF0E0ED93FC9354C0A09172
:101322009105A63009F04FC01093A805E1E0E093C3
:101332009305E0E0E0939705E0939105E093A9051A
:10134200E1E0E0934C05E0919805E0934D05E091D2
:101352009A05E0934E05A0919C05B0919D05E4E6A7
:10136200F0E00E94CD0DE0934F05A0919C05B09155
:101372009D05E4E6F0E00E940F0EE0935005E09137
:10138200A005E0935105E091A205E0935205A091DA
:10139200A405B091A505E4E6F0E00E94CD0DE0932E
:1013A2005305A091A405B091A505E4E6F0E00E94E2
:1013B2000F0EE0935405E0919E05E0935505E091F0
:1013C200A605E09356051991E991EFBFF991E991CC
:1013D200B991A99199911990099018950A921A9226
:1013E200FA926A937A938A939A93AA93BA93EA9314
:1013F200FA93EFB7EA931A9310919C00A0913E05DD
:10140200B0913F05109719F0163F08F45FC0E0E075
:10141200E0933E05E0933F05E12FF0E0E63FA0E0D8
:10142200FA0739F4E8EFF0E0E0933A05F0933B0570
:101432004CC0E73FA0E0FA0739F4E9EFF0E0E093AF
:101442003A05F0933B0541C0E83FA0E0FA0769F492
:10145200E8EFF0E0E0933C05F0933D05E7E0F0E0D3
:10146200E0933E05F0933F0530C0E93FA0E0FA0764
:1014720069F4E9EFF0E0E0933C05F0933D05E9E023
:10148200F0E0E0933E05F0933F051FC0EA3FA0E085
:10149200FA0741F4A0919005AA30B8F0E1E0E09398
:1014A200AA0513C0EB3FA0E0FA0721F4E0E0E093C5
:1014B200AA050BC0EC3FA0E0FA0711F4A99A05C0F7
:1014C200ED3FA0E0FA0709F4A99835C0A0913C05C8
:1014D200B0913D05A83FE0E0BE0779F4A0913E053A
:1014E200B0913F05E8E0F0E0EA1BFB0BEA5EFA4F41
:1014F2001083119711F43AD234DCA0913C05B091DB
:101502003D05A93FE0E0BE0779F4A0913E05B09108
:101512003F05EAE0F0E0EA1BFB0BE25EFA4F1083C4
:10152200119711F423D21DDCAEE3B5E0ED91FD91EC
:101532003197FE93EE931991E991EFBFF991E991F9
:10154200B991A9919991899179916991F99019909B
:1015520009901895AA93E881E06CE7B98AE18A9527
:10156200F1F7369A349BFECF349AE4B1F5B1219665
:101572000895BA93AA930E947E0EAC81BD81E6E9DA
:10158200F0E0EA1BFB0B9F01A091D705B091D805B3
:10159200EA0FFB1FE093D705F093D805A091D7057A
:1015A200B091D805A93EE3E0BE0734F0E8EEF3E0DF
:1015B200E093D705F093D805A091D805AA232AF481
:1015C200E0E0E093D705E093D805AC81BD815E975A
:1015D20030F4E0E2F3E0E093D705F093D805009110
:1015E200D7051091D805D801E4E0F0E00E94E00DA3
:1015F2008F01112312F400E010E00030E1E01E0739
:1016020014F00FEF10E0E02F0E94850E2896089547
:101612000A921A92FA926A937A938A939A93AA9363
:10162200BA93EA93FA93EFB7EA930E947E0E00E030
:1016320010E030E0E4E9E4BDA0916E05B0916F05E1
:101642008091700590917105A139E1E0BE07E0E05B
:101652008E07E0E09E0720F0A0915C05A23008F022
:101662001AC0D60188279927EFECF8E060E070E015
:101672000E949D0DDF01CB01E0916E05F0916F0597
:1016820060917005709171050E94E50DE0937605F9
:10169200F093770505C0E0E0E0937605E0937705E7
:1016A200E0917C05F0917D05E0937A05F0937B054E
:1016B200E0917E05F0917F05E0937C05F0937D0536
:1016C200E0917605F0917705E0937E05F0937F0532
:1016D200A0917205B0917305809174059091750582
:1016E200A139E1E0BE07E0E08E07E0E09E0720F0CE
:1016F200A0915D05A23008F01DC0A0911205B09125
:10170200130588279927EBE7F8E060E070E00E9474
:101712009D0DDF01CB01E0917205F091730560919F
:101722007405709175050E94E50DE0937805F093BC
:10173200790505C0E0E0E0937805E0937905E09152
:101742008205F0918305E0938005F0938105E09195
:101752008405F0918505E0938205F0938305E0917D
:101762007805F0917905E0938405F0938505A091C1
:101772007605B0917705AE17BF0740F4A0917805C2
:10178200B0917905A436E0E0BE0718F400E010E05D
:101792001DC0A0917605B0917705E0917805F09192
:1017A2007905EA1BFB0B66277727A8EEB3E080E0FA
:1017B20090E00E94C80DDF01CB01E0917805F09125
:1017C2007905662777270E940A0E8F01A091AA0544
:1017D200A130B9F4A0917805B0917905AE3EE2E06E
:1017E200BE0768F4A0911405B0911505EAE00E94C5
:1017F200BD0DFA93EA93D801BCDE3E2F01C03FEF44
:1018020001C030E0EFEFE31BE1BFA0915B05A9301F
:1018120020F4E0915B05EF5F04C0E1E0E0935A053C
:10182200E0E0E0935B050E94850E2496E991EFBF0C
:10183200F991E991B991A9919991899179916991D6
:10184200F9901990099018950E947C0E20E030E0E2
:1018520040E050E0A8E0B0E00E94590EE0931E057F
:10186200A1E1B0E00E94590EE093270511E0193082
:10187200B8F4E12FF0E0E25EFA4F0F01A12FB0E0E1
:10188200A85FBF4F0E94590ED001EC93E12FF0E008
:10189200E25EFA4FE081F0E02E0F3F1F1F5FE7CFBD
:1018A200F9010E94890D9F01A0911E05A93F31F403
:1018B200A0912705B0E0EA17FB0779F010E01A3093
:1018C20060F4A12FB0E0A25EBA4FE12FF0E0E05D3C
:1018D200FA4FE081EC931F5FF2CFA0E0B0E00E94EC
:1018E200590EE0931605A7E0B0E00E94590EE0936E
:1018F2001D0511E01730B8F4E12FF0E0EA5EFA4F6F
:101902000F01A12FB0E0A050B0400E94590ED001AB
:10191200EC93E12FF0E0EA5EFA4FE081F0E04E0F47
:101922005F1F1F5FE7CFDA01E6E0F0E00E94CD0D16
:10193200AF01A0911605A83F31F4A0911D05B0E0BA
:10194200EA17FB0779F010E0183060F4A12FB0E03D
:10195200AA5EBA4FE12FF0E0E85DFA4FE081EC9326
:101962001F5FF2CF0E94830E269608950E947E0E7C
:1019720020E030E011E0193050F4E12FF0E0E25EB7
:10198200FA4FE081F0E02E0F3F1F1F5FF4CFF90105
:101992000E94890D9F01E0912705D901F0E0EA1725
:1019A200FB0781F410E01A3068F4A12FB0E0A85FC1
:1019B200BF4FE12FF0E0E25EFA4FE0810E94650E38
:1019C2001F5FF1CF20E030E011E0173050F4E12F3B
:1019D200F0E0EA5EFA4FE081F0E02E0F3F1F1F5F5A
:1019E200F4CFD901E6E0F0E00E94CD0D9F01E09135
:1019F2001D05D901F0E0EA17FB0781F410E0183069
:101A020068F4A12FB0E0A050B040E12FF0E0EA5E10
:101A1200FA4FE0810E94650E1F5FF1CF0E94850E92
:101A22002496089590989198889A899815C08998D3
:101A32008898EE270000819B0895809B089504D02A
:101A4200899A02D0889AE1E062E107C0899A889A6D
:101A520003D08898F9DF899865E26A95F1F70895CD
:101A620078E08898F1DF809BFECFEEDF8894819941
:101A72000894889AF1DFEE1F7A9599F77A2F7723E7
:101A820011F4899801C0899ADFDF8898E5DF889A86
:101A9200DBDF8998D9CF78E0AA0F10F4899801C0CA
:101AA200899ADADF8898D0DF809BFECFCDDF889AD3
:101AB2007A9591F78998C8DF8898CEDFE1E081991D
:101AC200EE27889AC1CF109639F08DEC9AE00197F3
:101AD200F1F7A8951197C9F70895EA0FFB1F681F40
:101AE200791F0895EA1BFB0B680B790B0895AE1B57
:101AF200BF0B860B970B0895F195E195F040089581
:101B0200F09560957095E195FF4F6F4F7F4F089567
:101B1200F695E795F695E795F695E79508956F2F73
:101B2200660F660B762F0895FA9FF02DEB9FF00D4E
:101B3200EA9FE02DF10D08957A9F702D6B9F700D35
:101B4200F89F700DE99F700D6A9F602D710DFB9FCC
:101B5200600D711DE89F600D711D8827FA9FF02DA1
:101B6200610D781FEB9FF00D611D781FEA9FE02D3C
:101B7200F10D681F781F08956E2F6A9FF0016B9F09
:101B8200F00D08955CD0D0DF0EF4B6DF089565D075
:101B9200D3DF0EF4B5DF08950024112490E1AA0FDB
:101BA200BB1F001C111C0E1A1F0A18F40E0E1F1E5A
:101BB20001C0A1609A9599F7FD01D00108953FD027
:101BC200EBDF0EF499DF08953F934F935F93002468
:101BD20011244427552730E2AA0FBB1F881F991FE3
:101BE200001C111C441F551F0E1A1F0A460B570BCF
:101BF20028F40E0E1F1E461F571F01C0A1603A9502
:101C020059F7FD01BC01D001CA015F914F913F918B
:101C1200089523D0D9DF0EF473DF0895BDDFFD01EF
:101C22000895E894B7FF04C0A095B0951196689402
:101C3200F7FD62DFB1DFFD010EF45EDF0895E89487
:101C4200F7FF02C059DF6894B7FF06C0A095B095B0
:101C5200119600F8039400FA0895E89477FF02C001
:101C62004FDF689497FF0BC00024A095B095809534
:101C720090951196801D901D00F8039400FA089526
:101C8200ED91FC9111970895E881F9816A817B8138
:101C92000895A881B9818A819B810895E883F98397
:101CA2006A837B830895A083B1838283938308959B
:101CB200E199FECFFF93FFB7F894AEBBBFBBE09AAA
:101CC200EDB3FFBFFF910895E19B02C0A895FCCF41
:101CD2009FB7F894AEBBBFBBE09A8DB3E81719F07B
:101CE200EDBBE29AE19A9FBF089500240A160B0603
:101CF2000806090608955A934A933A932A931A9327
:101D02000A9308955D814C813B812A811981088162
:101D12000895AC0FBD1F05900D928A95E1F70895C5
:00000001FF
